:020000040000FA
:1000000000008A150A128E2AF200030E8301F10005
:100010000A088A01F0000408831603179F008A1556
:100020000A1250258A110A12831603172908143A56
:10003000031D2C288A110A12B3228A110A128A156A
:100040000A1246248A110A128A110A12FC268A11FF
:100050000A1283160317A901831603172A08643AA4
:10006000031D49288A150A12EF218A110A128A11E2
:100070000A1621218A110A128A150A12B9238A1135
:100080000A128A150A122A238A110A1283160317E2
:10009000AA01831603172908831603179E0005304B
:1000A0001E0783160317A900831603172A08831651
:1000B00003179E0005301E0783160317AA0083123C
:1000C00003130B11D8308100831603171F08831206
:1000D0000313840070088A008301710E8300F20EFE
:1000E000720E090083120313BD007F08BC007E0856
:1000F000BB007D08BA007C08C1007B08C0007A08FC
:10010000BF00790883120313CA0083120313BE00D1
:100110003A0883120313C600831203133B088312A9
:100120000313C700831203133C0883120313C80090
:10013000831203133D0883120313C90083120313B0
:100140003F0883120313CB0083120313400883126A
:100150000313CC0083120313410883120313CD0051
:1001600083120313460883120313BA008312031386
:100170004C0883120313BB00FF003A088A110A16C9
:1001800035258A110A1283120313BB007F08BA00B7
:1001900083120313D00083120313BC003B08BD007D
:1001A00083120313D100831203134608831203132F
:1001B000BA00831203134A0883120313BB00FF0023
:1001C0003A088A110A1635258A110A128312031376
:1001D000BB007F08BA0083120313CE0083120313FF
:1001E000BC003B08BD0083120313CF0051088312EB
:1001F0000313BA0083120313490883120313BB00CD
:10020000831203134A0883120313BC00FF003B0848
:100210008A110A1635258A110A127F0883120313E0
:10022000BB00BA073A0883120313D10083120313E9
:10023000480883120313BB00831203134B08831275
:100240000313BC00FF003B088A110A1635258A11EA
:100250000A127F0883120313BB00BA073A088312FD
:100260000313D100500883120313BA00831203133F
:10027000510883120313BB0083120313480883122F
:100280000313BC00831203134A0883120313BD0037
:10029000FF003C088A110A1635258A110A128312BA
:1002A0000313BD007F08BC003A08BE003B08BF0036
:1002B0003D08BB003C08BA003E07BC003F08BD003B
:1002C0003B0803183B0FBD073C0883120313D00003
:1002D00083120313BA003D0883120313D100831263
:1002E0000313BB0083120313470883120313BC00DC
:1002F000831203134B0883120313BD00FF003C0855
:100300008A110A1635258A110A1283120313BD00B9
:100310007F08BC003A08BE003B08BF003D08BB0098
:100320003C08BA003E07BC003F08BD003B0803186C
:100330003B0FBD073C0883120313D0008312031345
:10034000BA003D0883120313D10083120313BB00CC
:1003500083120313470883120313BA008312031393
:100360004C0883120313BB00FF003A088A110A16D7
:1003700035258A110A127F0883120313BA008312EB
:100380000313C900470883120313BA00831203132F
:100390004A0883120313BB00FF003A088A110A16A9
:1003A00035258A110A1283120313BB007F08BA0095
:1003B00083120313C70083120313BC003B08BD0064
:1003C00083120313C800460883120313BA00831272
:1003D00003134D0883120313BB00FF003A088A1170
:1003E0000A1635258A110A127F0883120313BA00F0
:1003F00083120313CD0083120313460883120313E1
:10040000BA00831203134B0883120313BB00FF00CF
:100410003A088A110A1635258A110A128312031323
:10042000BD00BB007F08BA0083120313CB00831208
:100430000313BC003D0883120313CC00CA018312CE
:100440000313C601831203134E0883120313BA0069
:10045000831203134F0883120313BB008312031389
:10046000500883120313BC00831203135108831234
:100470000313BD0083120313460883120313C20043
:10048000BE0083120313470883120313C300BF0087
:1004900083120313480883120313C400C00083129D
:1004A0000313490883120313C500C1004208BE00AC
:1004B000BA073F0803183F0FBB0740080318400F57
:1004C000BC0741080318410FBD073A088312031304
:1004D000CE00831203133B0883120313CF00831251
:1004E00003133C0883120313D000831203133D0847
:1004F00083120313D100831203134A0883120313D8
:10050000BE00831203134B0883120313C300BF0002
:10051000831203134C0883120313C400C000831218
:1005200003134D0883120313C500C1004408C00023
:100530004508C1003E08C200BE00BA074308BF001C
:1005400003183F0FBB0740080318400FBC074108C2
:100550000318410FBD073A08FD003B08FE003C08A8
:10056000FF003D08080083120313D701D801D90109
:10057000DA01DB01831203135A08CD3EDC000030A0
:10058000DD005B0803185B0FDD075A08CD3EDE0077
:100590000030DF005B0803185B0FDF07DE0A03197A
:1005A000DF0A5E088312031384008313831203138C
:1005B0005F18831783120313000883120313E000EC
:1005C0005C088312031384008313831203135D18E2
:1005D000831760088312031380000430831203130F
:1005E00057020318682B0330831203138A0001306B
:1005F000831203135707031C002B831203138A0A69
:100600008200052B1E2B372B502B0030FF000130B2
:100610008A150A1200208A110A1283120313DC00C1
:100620005E088312031384008313831203135F187D
:1006300083175C08831203138000682B0130FF00CE
:1006400001308A150A1200208A110A12831203133C
:10065000DC005E08831203138400831383120313E8
:100660005F1883175C08831203138000682B023025
:10067000FF0001308A150A1200208A110A12831223
:100680000313DC005E0883120313840083138312B8
:1006900003135F1883175C08831203138000682B11
:1006A0000330FF0001308A150A1200208A110A1255
:1006B00083120313DC005E08831203138400831388
:1006C000831203135F1883175C08831203138000DF
:1006D000831203135808CD3EDC000030DD005908BA
:1006E0000318590FDD0702305C07DE00DF01DF0D64
:1006F0005D08DF075E0883120313840083138312EF
:1007000003135F1883178312031300088312031364
:10071000E000043060020318622C033083120313DC
:100720008A009B30831203136007031C9A2B8312E9
:1007300003138A0A82009F2BDA2B032C3E2C831290
:1007400003135C08831203138400831383120313BF
:100750005D18831783120313000883120313E0004C
:100760006008031D622C01305C07E000E101E10D2F
:100770005D08E1076008831203138400831383126A
:1007800003136118831783120313000883120313E2
:10079000E2006208031D622C5E08831203138400CA
:1007A0008313831203135F1883170130831203131B
:1007B0008000622C0130831203135C07E000E1012A
:1007C000E10D5D08E10760088312031384008313C1
:1007D0008312031361188317831203130008831213
:1007E0000313E2006208031D622C5E0883120313E8
:1007F00084008313831203135F188317023083125C
:1008000003138000622C831203135C08831203130A
:1008100084008313831203135D1883178312031359
:10082000000883120313E000013A031D622C01301B
:100830005C07E000E101E10D5D08E107600883125B
:100840000313840083138312031361188317831225
:100850000313000883120313E200013A031D622C04
:100860005E088312031384008313831203135F183B
:1008700083170330831203138000622C8312031347
:10088000DC0A0319DD0A5C08831203138400831356
:10089000831203135D188317831203130008831256
:1008A0000313E000013A031D622C5E088312031358
:1008B00084008313831203135F188317003083129D
:1008C00003138000033083120313D8070318D90AD7
:1008D0000330DA070318DB0AD70A03305702031C78
:1008E000BA2A080083120313A8007F08A9007E0813
:1008F000AA00053028020318B62D04308312031312
:100900008A008B30831203132807031C8A2C83125E
:1009100003138A0A8200902CCB2C062D412D7C2DAE
:10092000831203130130AB002908A800A81BA22CD6
:10093000003C0319AB2C83120313AB0D013E031CC7
:100940009B2CAB2C031083120313AB1B0314AB0CB7
:10095000013E031CA22C831203132B09A80083124F
:100960000313050883120313AB00A8052A08AB0084
:100970002908003C0319C22C83120313AB0D013E5E
:10098000031CBC2C831203132B08AC002804831215
:1009900003138500B62D013083120313AB00290821
:1009A000A800A81BDD2C003C0319E62C83120313BE
:1009B000AB0D013E031CD62CE62C0310831203134F
:1009C000AB1B0314AB0C013E031CDD2C8312031381
:1009D0002B09A80083120313060883120313AB002C
:1009E000A8052A08AB002908003C0319FD2C831236
:1009F0000313AB0D013E031CF72C831203132B08CA
:100A0000AC002804831203138600B62D0130831234
:100A10000313AB002908A800A81B182D003C0319DC
:100A2000212D83120313AB0D013E031C112D212D2B
:100A3000031083120313AB1B0314AB0C013E031C06
:100A4000182D831203132B09A80083120313070820
:100A500083120313AB00A8052A08AB002908003C49
:100A60000319382D83120313AB0D013E031C322DE5
:100A7000831203132B08AC0028048312031387008E
:100A8000B62D013083120313AB002908A800A81B60
:100A9000532D003C03195C2D83120313AB0D013E53
:100AA000031C4C2D5C2D031083120313AB1B03148A
:100AB000AB0C013E031C532D831203132B09A8001A
:100AC00083120313080883120313AB00A8052A0836
:100AD000AB002908003C0319732D83120313AB0DDF
:100AE000013E031C6D2D831203132B08AC00280458
:100AF000831203138800B62D013083120313AB0059
:100B00002908A800A81B8E2D003C0319972D8312DD
:100B10000313AB0D013E031C872D972D0310831289
:100B20000313AB1B0314AB0C013E031C8E2D83126D
:100B300003132B09A800831203130908831203135C
:100B4000AB00A8052A08AB002908003C0319AE2D0C
:100B500083120313AB0D013E031CA82D8312031354
:100B60002B08A900280483120313890008008312AC
:100B70000313A0007F08A1007E08A2000530200218
:100B80000318FB2E0530831203138A00D030831222
:100B900003132007031CCF2D831203138A0A82003C
:100BA000D52D102E4B2E862EC12E8312031301300D
:100BB000A3002108A000A01BE72D003C0319F02D85
:100BC00083120313A30D013E031CE02DF02D03102F
:100BD00083120313A31B0314A30C013E031CE72D74
:100BE000831203132309A00083160313050883123D
:100BF0000313A300A0052208A3002108003C031949
:100C0000072E83120313A30D013E031C012E831232
:100C100003132308A4002004831603138500FB2E6E
:100C2000013083120313A3002108A000A01B222E71
:100C3000003C03192B2E83120313A30D013E031C4A
:100C40001B2E2B2E031083120313A31B0314A30CC0
:100C5000013E031C222E831203132309A0008316D6
:100C60000313060883120313A300A0052208A300A0
:100C70002108003C0319422E83120313A30D013EE9
:100C8000031C3C2E831203132308A40020048316A4
:100C900003138600FB2E013083120313A3002108E7
:100CA000A000A01B5D2E003C0319662E83120313C7
:100CB000A30D013E031C562E662E03108312031350
:100CC000A31B0314A30C013E031C5D2E831203130C
:100CD0002309A00083160313070883120313A3003C
:100CE000A0052208A3002108003C03197D2E8312D1
:100CF0000313A30D013E031C772E83120313230855
:100D0000A4002004831603138700FB2E01308312F6
:100D10000313A3002108A000A01B982E003C031978
:100D2000A12E83120313A30D013E031C912EA12EAD
:100D3000031083120313A31B0314A30C013E031C13
:100D4000982E831203132309A000831603130808A7
:100D500083120313A300A0052208A3002108003C6E
:100D60000319B82E83120313A30D013E031CB22EE8
:100D7000831203132308A40020048316031388009E
:100D8000FB2E013083120313A3002108A000A01B37
:100D9000D32E003C0319DC2E83120313A30D013E56
:100DA000031CCC2EDC2E031083120313A31B03148D
:100DB000A30C013E031CD32E831203132309A000AE
:100DC00083160313090883120313A300A005220846
:100DD000A3002108003C0319F32E83120313A30D73
:100DE000013E031CED2E831203132308A1002004EF
:100DF00083160313890008008A110A1664268A11D3
:100E00000A12831603179100023A031DCF2F83168F
:100E10000317A40A00308A150A12D8278A110A1269
:100E2000831603179100013A031D2A2F4B308316B6
:100E30000317230203182A2F230883160317910090
:100E40000530110783160317A30083120317ED0162
:100E5000EE01632F01308A150A12D8278A110A126F
:100E6000831603179100013A031D4A2F243083167D
:100E700003172302031C4A2F23088316031791002C
:100E8000FB30110783160317A30083120317ED012C
:100E9000EE01632F83120317ED0A0319EE0A6D08A2
:100EA000643A031D632F6E08003A031D632F8316F7
:100EB00003172308FE000A30FF0000308A150A12CB
:100EC00040268A110A128316031726080A3A0319C4
:100ED000AC2F8316031792010A30FD000030FE008C
:100EE000831603172608831603179100FF000030AE
:100EF0008A150A12A8268A110A128316031792006D
:100F00007F0891009300FF0002308A110A166025C5
:100F10008A110A128316031792010A30FD0000306D
:100F2000FE00831603172608831603179100FF009F
:100F300000308A110A1664208A110A1283160317D8
:100F400092007F0891009300FF0003308A110A1677
:100F500060258A110A12C02F831603172608FF0086
:100F600002308A110A1660258A110A1283160317A5
:100F70002608FF0003308A110A1660258A110A121A
:100F80008316031724080A3A031DDE2F8A110A1656
:100F9000A2258A110A1283160317A401DE2F8A11D3
:100FA0000A1664268A110A12831603179100110883
:100FB000031DDE2F013083160317A50008008312DE
:100FC0000313A5007F08A600A701831203132608B8
:100FD000FE002708FF0025088A110A12B7258A118A
:100FE0000A1283120313A70A08302702031CE52FF5
:100FF000080001308A110A161F248A110A120800FB
:1010000083120313B4007F08B500B6010530340223
:1010100003181B290830831203138A001830831227
:1010200003133407031C1728831203138A0A820050
:101030001D2850288328B628E9280030831203137E
:10104000B7000130B4003508003C03192E28831284
:101050000313B40DB70D013E031C2728831203139D
:10106000050883120313B800B9013808B40500302D
:10107000B7053708B9003408B8003508003C031933
:101080004B28031083120313B91B0314B90CB80CBB
:10109000013E031C4128831203133808B6001B29A4
:1010A000003083120313B7000130B4003508003C50
:1010B0000319612883120313B40DB70D013E031CFD
:1010C0005A2883120313060883120313B800B901C8
:1010D0003808B4050030B7053708B9003408B8003F
:1010E0003508003C03197E28031083120313B91B33
:1010F0000314B90CB80C013E031C742883120313AB
:101100003808B6001B29003083120313B7000130E2
:10111000B4003508003C0319942883120313B40D5E
:10112000B70D013E031C8D28831203130708831299
:101130000313B800B9013808B4050030B705370803
:10114000B9003408B8003508003C0319B128031071
:1011500083120313B91B0314B90CB80C013E031C12
:10116000A728831203133808B6001B290030831206
:101170000313B7000130B4003508003C0319C72839
:1011800083120313B40DB70D013E031CC028831254
:101190000313080883120313B800B9013808B40513
:1011A0000030B7053708B9003408B8003508003CEE
:1011B0000319E428031083120313B91B0314B90C99
:1011C000B80C013E031CDA28831203133808B6005A
:1011D0001B29003083120313B7000130B400350817
:1011E000003C0319FA2883120313B40DB70D013E16
:1011F000031CF32883120313090883120313B80096
:10120000B9013808B4050030B7053708B90034080B
:10121000B8003508003C0319172903108312031383
:10122000B91B0314B90CB80C013E031C0D29831221
:1012300003133808B600831203133608080083121C
:101240000313D2007F08D30004305202031865292B
:101250000930831203138A003630831203135207B6
:10126000031C3529831203138A0A82003A2945296F
:1012700050295B290130FE000030FF0001308A1147
:101280000A12B7258A150A1265290130FE000130BD
:10129000FF0001308A110A12B7258A150A12652942
:1012A0000130FE000230FF0001308A110A12B7251A
:1012B0008A150A1265290130FE000330FF00013053
:1012C0008A110A12B7258A150A120330FF00831209
:1012D000031352088A110A1635258A150A12831239
:1012E0000313D4007F08D200CD3ED2005408031867
:1012F000540F003ED40002305207D500D601D60D5F
:101300005408D607550883120313840083138312ED
:1013100003135618831753088312031380000430F5
:101320008312031353020318EE29093083120313A7
:101330008A00A330831203135307031CA2298312CC
:1013400003138A0A8200A729CD29CD29A729831250
:1013500003135208831203138400831383120313AD
:101360005418831701308312031380000130831255
:1013700003135207D300D501D50D5408D5075308E0
:1013800083120313840083138312031355188317E6
:101390000130831203138000EE29831203135208D5
:1013A00083120313840083138312031354188317C7
:1013B000003083120313800083120313D20A03192F
:1013C000D40A520883120313840083138312031375
:1013D00054188317003083120313800008008A1109
:1013E0000A1664268A150A1283160313D900013AD5
:1013F000031D8D2A8A110A16B8228A150A1283162D
:101400000313DC007F08DB007E08DA007D08D900CA
:10141000E830F9000330FA000030FB000030FC0037
:101420005908FD005A08FE005B08FF005C088A1599
:101430000A12C9258A150A1283160313E0007F08D1
:10144000DF007E08DE007D08DD006430F90000303A
:10145000FA000030FB000030FC005D08FD005E0873
:10146000FE005F08FF0060088A150A12C9258A1568
:101470000A1283160313E0007F08DF007E08DE00F7
:101480007D08DD000A30F9000030FA000030FB0072
:101490000030FC005D08FD005E08FE005F08FF00F4
:1014A00060088A110A16C5208A150A1283160313CA
:1014B000E0007F08DF007E08DE007D08DD00FF0021
:1014C00002308A110A1660258A150A120A30F900BC
:1014D0000030FA000030FB000030FC0083160313DC
:1014E0005908FD005A08FE005B08FF005C088A15D9
:1014F0000A12C9258A150A1283160313DC007F0815
:10150000DB007E08DA007D08D900DD00FF00033033
:101510008A110A1660258A150A120800CC30FE00CE
:101520001130FF0080308A110A16D2248A150A125F
:101530008312031791007F089000CE309200113083
:101540009300831203171008940011089500FF30D0
:101550009007031C9103150814040319262B04306B
:10156000120794009501950D130895071408FE00C5
:101570001508FF0080308A110A16D2248A150A1233
:101580008312031797007F0896001208FE001308C5
:10159000FF0080308A110A16D2248A150A1283129B
:1015A0000317990095007F089400980002301207F5
:1015B00094009501950D130895071408FE00150871
:1015C000FF0080308A110A16D2248A150A1283126B
:1015D000031795009B007F089A009400831203175D
:1015E00016089A0017089B00FF309607031C970304
:1015F0001B081A0403191F2B1808FE001908FF0006
:1016000080308A110A16F3248A150A1283120317EE
:101610009A001408831203138400831383120317A0
:10162000151883171A0883120313800083120317F7
:10163000980A0319990A940A0319950AEE2A0630A2
:101640008312031792070318930AA12A8A110A1614
:10165000002808008A110A1664268A150A128312C5
:101660000317B10031080319402B8A110A166426AA
:101670008A150A1283120317B100023A031D472B81
:1016800000308A110A16F0258A150A12B82B8A1121
:101690000A16B8228A150A127F087E087D0883126E
:1016A0000317B100B2008A110A1658268A150A12C9
:1016B00083120317B100B300B40105303307B10042
:1016C000B501B50D0030B5073208B300B4010030E4
:1016D000803EB6003508803E3602031D712B31086E
:1016E0003302031C852B8A110A1617268A150A1243
:1016F00083120317B1003108031D852B01308A11B5
:101700000A16F0258A150A12B82B8A110A16B82271
:101710008A150A1283120317B4007F08B3007E08EB
:10172000B2007D08B100B5008A110A1658268A1544
:101730000A1283120317B100B600B701FB30360757
:10174000B100FF30B80000300318370FB807350874
:10175000B600B70131083606031DB82B3808370626
:10176000031DB82B00308A110A16F0258A150A12BB
:1017700008008A110A1664268A150A1283120317B2
:10178000B90039080319CF2B8A110A1664268A1565
:101790000A1283120317B900023A031DD62B003038
:1017A0008A110A16FA258A150A12452C8A110A1678
:1017B000B8228A150A127F087E087D088312031753
:1017C000B900BA008A110A1658268A150A1283121D
:1017D0000317B900BB00BC0105303B07B900BD01D0
:1017E000BD0D0030BD073A08BB00BC010030803E93
:1017F000BE003D08803E3E02031D002C39083B021E
:101800000318142C8A110A160E268A150A1283123E
:101810000317B9003908031D142C01308A110A1668
:10182000FA258A150A12452C8A110A16B8228A1539
:101830000A1283120317BC007F08BB007E08BA009F
:101840007D08B900BD008A110A1658268A150A12A9
:1018500083120317B900BE00BF0105303E07B9006F
:10186000C001C00D0030C0073D08BE00BF013908EF
:101870003E06031D452C40083F06031D452C003045
:101880008A110A16FA258A150A12080003308316EF
:10189000031728020318CC2C0C30831203138A0080
:1018A0005A30831603172807031C592C831203137D
:1018B0008A0A82005D2C702CA22C02308A150A1232
:1018C000D8278A150A12831603179C00013A031DB4
:1018D000CC2C01308A110A1660268A150A12CC2CEB
:1018E00002308A150A12D8278A150A12831603179E
:1018F0009C00013A031D832C00308A110A166026D1
:101900008A150A12CC2C00308A150A12D8278A159B
:101910000A12831603179C00013A03199B2C01300D
:101920008A150A12D8278A150A12831603179C00F3
:10193000013A031DCC2C02308A110A1660268A1542
:101940000A12CC2C02308A150A12D8278A150A12DC
:10195000831603179C00013A031DB52C00308A1131
:101960000A1660268A150A12CC2C8A110A164C26F1
:101970008A150A12831603179D007F089C00643A9B
:10198000031DCC2C1D08003A031DCC2C01308A11FC
:101990000A1660268A150A12080083160313A0008F
:1019A0007F08A1007E08A2000030FF0003308A11EA
:1019B0000A12DF278A150A12831603132208E53E4E
:1019C000A30000300318013EA40023088312031370
:1019D00084008313831603132418831783120313BD
:1019E0000008FF0003308A110A1652238A150A12D2
:1019F000043083160313200203183B2D0D3083128D
:101A000003138A000C30831603132007031C0B2DCD
:101A1000831203138A0A8200102D1B2D262D312DCF
:101A20000030FE000230FF0000308A110A12B72594
:101A30008A150A123B2D0030FE000330FF000030F3
:101A40008A110A12B7258A150A123B2D0030FE00B2
:101A50000430FF0000308A110A12B7258A150A12D5
:101A60003B2D0030FE000530FF0000308A110A12C5
:101A7000B7258A150A12831603132108FF002008D0
:101A80008A110A161C228A150A12831603132208C9
:101A9000FF0020088A110A1660258A150A1208001C
:101AA0008A110A1664268A150A1283160313A500E2
:101AB0002508031D6C2D0030FF0002308A110A1624
:101AC0001C228A150A120030FF0003308A110A1600
:101AD0001C228A150A12C82D0030FF0002308A111C
:101AE0000A161C228A150A120030FF0003308A11E0
:101AF0000A161C228A150A12831603172708943E19
:101B000083160313A50001300318013EA600250823
:101B10008312031384008313831603132618831779
:101B200083120313000883160313A700E53EA500E4
:101B300000300318013EA600250883120313840019
:101B400083138316031326188317831203130008C5
:101B500083160313A700FF0003308A110A165223CD
:101B60008A150A120130FF008316031727088A110D
:101B70000A161C228A150A12831603172708033A2D
:101B8000031DC52D0230A700C82D83160317A70A11
:101B90000800831203179F007F089E007E089D00A7
:101BA0007D089C007C08A3007B08A2007A08A100A5
:101BB0007908A000A401A501831203172308803926
:101BC000031D0130A6002608031D092E0310A00DD9
:101BD000A10DA20DA30D23081F02031DF92D22083C
:101BE0001E02031DF92D21081D02031DF92D2008D9
:101BF0001C020318032E031083120317A30CA20C5C
:101C0000A10CA00C092E83120317A50A2508A40015
:101C1000DC2D8312031723081F02031D192E22082F
:101C20001E02031D192E21081D02031D192E200856
:101C30001C02031C2B2E8312031720089C02210870
:101C4000031C210F9D022208031C220F9E02230861
:101C5000031C230F9F02031083120317A30CA20C73
:101C6000A10CA00C2408A500A4032508031D092E1F
:101C70001C08FD001D08FE001E08FF001F080800CC
:101C800083160313B6007F08B5007E08B700B800BE
:101C9000B901B70101303605BA00B700BB00BC017D
:101CA0003508BA00BB018A110A1632268A150A12B3
:101CB0008316031337080319662EA230FF00003085
:101CC0008A110A16B4258A150A126E2EA030FF005A
:101CD00000308A110A16B4258A150A1283160313D6
:101CE000BD013A08BC00FF0000308A110A16B42575
:101CF0008A150A12831603133808FF0039088A115F
:101D00000A16B4258A150A128A110A1629268A1576
:101D10000A1283160313BB0A3508FF0036088A151A
:101D20000A1273278A150A1283160313BC00BD001A
:101D3000BE013D083806031DA12E3E0839060319D1
:101D4000A72E0A30831603133B02031C532E0800F0
:101D500083120317C2007F08C1007E08C4007D08FB
:101D6000C3000314C21F0310C501C50D45080319A4
:101D7000C12E4109C6004209C700C60A0319C70A95
:101D8000C72E831203174108C6004208C7008312FA
:101D900003174608C1004708C2000314C41F0310FC
:101DA000C601C60D46080319DD2E4309C7004409C4
:101DB000C800C70A0319C80AE32E83120317430891
:101DC000C7004408C800831203174708C300FD007A
:101DD0004808C400FE004108FF0042088A110A16A4
:101DE00061248A150A1283120317C2007F08C100FA
:101DF0004608C50645080319082F4109C5004209D0
:101E0000C300C50A0319C30A4508FF0043080D2F84
:101E1000831203174108FF004208080083120317CA
:101E2000AA0004302A05AB0003102B0CAC000310F1
:101E3000AC0C2C0C03181F2F831203139F12031CCE
:101E4000242F831203139F160230831203172A05CF
:101E5000AB0003102B0CAC002C0C0318322F831298
:101E600003131F12031C372F831203131F16831231
:101E700003172A0C03183F2F831203139F11031C0F
:101E8000442F831203139F15831603139F17831286
:101E900003131F141F1583120317AA0183120313C0
:101EA0001F1D552F83120317AA0A831203172A082E
:101EB000013A03194B2F831203131E0883120317D1
:101EC000AD00AA00AB01AC01831603131E088312F8
:101ED0000317AA00AB012A08AC040030AD042C089B
:101EE000FF002D08080083160313B2007F08B1001D
:101EF000B30101303205B400B3003108B4008A11D7
:101F00000A1632268A150A12831603133308031998
:101F1000922FA230FF0000308A110A16B4258A15CC
:101F20000A129A2FA030FF0000308A110A16B42539
:101F30008A150A1283160313B2013408B100FF0098
:101F400000308A110A16B4258A150A128A110A1657
:101F500032268A150A128316031333080319B92F80
:101F6000A330FF0000308A110A16B4258A150A1220
:101F7000C12FA130FF0000308A110A16B4258A153E
:101F80000A120130FF0000308A110A1698238A15C0
:101F90000A1283160313B2007F08B100B3008A113E
:101FA0000A1629268A150A12831603133308080015
:101FB00083120313E3000330FF0063088A110A163B
:101FC00035258A150A1283120313E4007F08E30003
:101FD000CD3EE30064080318640F003EE4000230C5
:101FE000E3070318E40A63088312031384008313CE
:101FF0008312031364188317831203130008080065
:102000000030FF0001308A150A121F218A110A16BA
:102010000030FF0000308A150A121F218A110A16AB
:102020000030FF0002308A150A121F218A110A1699
:1020300000308A110A1652268A110A168A110A12CB
:10204000F9278A110A16C030FD000130FE00003069
:10205000FF0000308A110A1677218A110A163C30D7
:102060008A110A169B248A110A168A110A16C42597
:102070008A110A168A110A16CF258A110A168A11A0
:102080000A16DA258A110A160A30FE000030FF000F
:1020900002308A150A12CD248A110A160A30FE006F
:1020A0000030FF0003308A150A12CD248A110A1667
:1020B0008A110A1644268A110A168A110A163B2624
:1020C0008A110A166228080083120317D9007F08B4
:1020D000D8007E08DB007D08DA000314D91F031046
:1020E000DC01DC0D5C0803197D285809DD00590965
:1020F000DE00DD0A0319DE0A83288312031758085D
:10210000DD005908DE00831203175D08D8005E0861
:10211000D9000314DB1F0310031C96285A09DD00A5
:102120005B09DE00DD0A0319DE0A9C28831203170F
:102130005A08DD005B08DE00831203175D08DA0031
:10214000FD005E08DB00FE005808FF0059088A11F8
:102150000A1605238A110A1683120317D9007F086D
:10216000D8005C080319BF285809DC005909DA00B7
:10217000DC0A0319DA0A5C08FF005A08C428831233
:1021800003175808FF005908080083160313C200FC
:102190007F08C1007E08C0007D08BF007C08C60023
:1021A0007B08C5007A08C4007908C300C701C801CC
:1021B000C901CA012030CB008316031342088039BD
:1021C000031D0130CC000310BF0DC00DC10DC20DA9
:1021D0000310C70DC80DC90DCA0D4C08031D4714C7
:1021E00046084A02031DFE2845084902031DFE2831
:1021F00044084802031DFE2843084702031C112916
:10220000831603134308C7024408031C440FC80283
:102210004508031C450FC9024608031C460FCA02A5
:102220003F14831603134B03CC00CB004C08031D53
:10223000DC283F08FD004008FE004108FF0042087E
:1022400008008A110A160E268A110A168316031729
:10225000A0002008031D3E298A110A1617268A119C
:102260000A1683160317A0002008031D3E2900301C
:102270008A110A1604268A110A1676298A110A1664
:1022800017268A110A1683160317A000013A031DA8
:10229000652983160317A10A2108053A031D76292B
:1022A000A101831603172208031D59290130A2003A
:1022B0005C2983160317A2018316031722088A11CB
:1022C0000A1604268A110A1676298A110A160E267B
:1022D0008A110A1683160317A000013A031D7629F6
:1022E00001308A110A1604268A110A160800831280
:1022F0000313E8007F08E7007E08E6007D08E5009C
:1023000083160313871507162830831203139400CE
:10231000831603139101831203136508F9006608FD
:10232000FA006708FB006808FC009030FD000130EF
:10233000FE000030FF0000308A110A1272208A115C
:102340000A1683120313E8007F08E7007E08E60000
:102350007D08E500F9006608FA006708FB006808D8
:10236000FC000030FD001230FE007A30FF0000302B
:102370008A110A16C5208A110A1683120313E8006F
:102380007F08E7007E08E6007D08E5006503831608
:1023900003139300940108000D3400346E34163496
:1023A000A1340134013400346F341634A2340134C2
:1023B0000134003470341634A43401340134003450
:1023C00071341634A53401340134003472341634B7
:1023D000A6340134013400345C34163494340134AE
:1023E00004340034E5341534E53400340B3400345F
:1023F00073341634A7340134013400347434163481
:10240000A83401340134003468341634983401346B
:102410000434003475341634A934013401340034E2
:1024200076341634AA340134013400347734163447
:10243000AB3401340134003483160313AB007F083E
:10244000AC0004302B0203186A2A123083120313E3
:102450008A003330831603132B07031C322A83129E
:1024600003138A0A8200372A442A512A5E2A8316D5
:1024700003132C08FE000230FF0000308A110A12FC
:1024800072248A110A166A2A831603132C08FE0086
:102490000330FF0000308A110A1272248A110A16D2
:1024A0006A2A831603132C08FE000430FF00003054
:1024B0008A110A1272248A110A166A2A83160313D1
:1024C0002C08FE000530FF0000308A110A12722429
:1024D0008A110A16080083160313AF00B0010430F6
:1024E0002F020318B42A1230831203138A0081309A
:1024F000831603132F07031C802A831203138A0AEF
:102500008200852A912A9D2AA92A0230FF000030E4
:102510008A150A1200208A110A1683160313B000C6
:10252000B42A0330FF0000308A150A1200208A11F5
:102530000A1683160313B000B42A0430FF000030DB
:102540008A150A1200208A110A1683160313B00096
:10255000B42A0530FF0000308A150A1200208A11C3
:102560000A1683160313B0008316031330080800FD
:1025700002308A150A120E278A110A1683160313CF
:10258000E400E2007F08E100E300F9006408FA00DB
:102590000030FB000030FC00EE30FD000230FE0099
:1025A0000030FF0000308A110A1272208A110A16C8
:1025B00083160313E4007F08E3007E08E2007D0831
:1025C000E100FE30F9000530FA000030FB00003079
:1025D000FC006108FD006208FE006308FF0064085B
:1025E0008A110A16C5208A110A1683160313E400FD
:1025F0007F08E3007E08E2007D08E100FD0062083C
:10260000FE006308FF006408080083120317E0005F
:102610007F08DF007E08E2007D08E100E301E401BD
:102620008312031762088039031D0130E500650835
:10263000031D312B0310E10DE20D62086002031D42
:10264000232B61085F0203182B2B0310831203173F
:10265000E20CE10C312B83120317E40A6408E30057
:10266000102B8312031762086002031D392B6108C7
:102670005F02031C432B831203176108DF02620809
:10268000031C620FE002031083120317E20CE10C3B
:102690006308E400E3036408031D312B5F08FF00B7
:1026A0006008080083120313AD007F08AE00AF017D
:1026B000003083120313B1000130B0002F08003C3A
:1026C0000319692B83120313B00DB10D013E031CD6
:1026D000622B83120313B3012E08B200B005003041
:1026E000B1053108B3003008B2002F08003C0319CF
:1026F000832B031083120313B31B0314B30CB20C0C
:10270000013E031C792B831203133208B000FE0034
:102710002F08FF002D088A110A1272248A110A1646
:1027200083120313AF0A08302F02031C582B080032
:1027300083120313EC007F08EB008A110A16902520
:102740008A110A168316031391158A110A16902509
:102750008A110A1683120313130883120313ED0060
:10276000EE018A110A1690258A110A1683120313A4
:102770006C086B040319BF2BEB01EC01C42B013077
:1027800083120313EB00EC01831203136B08EF00B9
:102790006F0C0318CE2B831603139112031CD32B3B
:1027A0008316031391168316031311168312031352
:1027B0006D08FF006E08080083120317AE00043096
:1027C0002E05AF0003102F0CB0000310B00C300C1E
:1027D0000318ED2B831203139F12031CF22B831299
:1027E00003139F160230831203172E05AF00031048
:1027F0002F0CB000300C0318002C831203131F128F
:10280000031C052C831203131F16831203172E0CAF
:1028100003180D2C831203139F11031C122C831217
:1028200003139F15831603139F17831203131F149B
:102830001F158B170B17831603130C170800831231
:102840000317A700831203131F100430831203170A
:102850002705A8000310280CA9000310A90C290CB7
:102860000318352C831603131F13031C3A2C8316ED
:1028700003131F170230831203172705A800031044
:10288000280CA900290C0318482C831203139F134A
:10289000031C4D2C831203139F1783120317270C5D
:1028A0000318552C831203131F13031C5A2C831275
:1028B00003131F17831603139F111F119F141F105B
:1028C000080083120317CA007F08C9007E08CC00E5
:1028D0007D08CB00CD01CE011030CF00831203174D
:1028E0004A088039031D0130D0000310C90DCA0DFC
:1028F0000310CD0DCE0D5008031D4D144C084E0293
:10290000031D842C4B084D02031C8F2C83120317CC
:102910004B08CD024C08031C4C0FCE024914831205
:1029200003174F03D000CF005008031D6E2C490839
:10293000FF004A0808008316031790001430FF00B8
:1029400000308A150A1273278A110A16053A0319EC
:10295000C62C0530FE001430FF0000308A150A1224
:1029600040268A110A16831603172308FE000A3030
:10297000FF0000308A150A1240268A110A168316B3
:102980000317100883160317A300D12C0A30FF0089
:1029900000308A150A1273278A110A168316031744
:1029A000A3000800003A0319DA2C803A0319E42C3A
:1029B000FF0100347E08840083137F18831700080A
:1029C000FF00840A000808008A110A160125FD008C
:1029D000FE0FFF03FF0A8A110A160125FC007D087D
:1029E000FF007C080800003A0319FA2C803A03190A
:1029F000012D00347E08840083137F18831700089C
:102A000008007F088A007E088200080083120317EE
:102A1000D100D201D301831203175108D400D5018C
:102A200000305302031D162D540852020318342D92
:102A3000783083120317D400D501FF3083120317B7
:102A40005407D600FF30D70055080318550FD70795
:102A50005608D4005708D50057085604031D1D2DED
:102A6000D20A0319D30A0B2D080083120317E600BC
:102A70007F08E700E801E901EA0108308312031743
:102A80006A0203185A2D0310E80DE90DE61F512DB7
:102A90000030EC006708EB00E8076C0803186C0FC7
:102AA000E907831203176608EB0003106B0DE600BD
:102AB000EA0A3D2D831203176808FF006908080021
:102AC00083160313A8007F08A9002808943EA800D5
:102AD00001300318013EAA00280883120313840062
:102AE0008313831603132A188317290883120313E9
:102AF0008000080083160313AD00943EAD00013042
:102B00000318013EAE002D088312031384008313C3
:102B1000831603132E18831783120313000808006B
:102B200083160313110883120313E9001F39031DD1
:102B3000902D83160313140883120313E9006919F7
:102B4000902D08008316031726080A3A031DAF2D9F
:102B500083160317230883160317A600B32D0A3024
:102B600083160317A60008007F0883120313EA00E8
:102B70008A110A1690258A110A16831203136A080D
:102B800083120313930008000030FE000230FF00A0
:102B900002308A110A12B7258A110A16080000307D
:102BA000FE000530FF0002308A110A12B7258A1193
:102BB0000A1608000030FE000330FF0001308A11C1
:102BC0000A12B7258A110A1608003F3406345B340E
:102BD0004F3466346D347D3407347F346F340034C1
:102BE000FE000230FF0002308A110A1272248A119C
:102BF0000A160800FE000530FF0002308A110A1292
:102C000072248A110A160800FE000330FF0001300A
:102C10008A110A1272248A110A1608000230FF0073
:102C200002308A150A1200208A110A16080005309F
:102C3000FF0002308A150A1200208A110A160800C5
:102C40000330FF0001308A150A1200208A110A168B
:102C500008008A110A1690258A110A168316031392
:102C6000111508008A110A1690258A110A16831672
:102C7000031311140800831203138B168B1783168A
:102C80000313811281120800831603138116811128
:102C90000114811401150800831203176D08FF0049
:102CA0006E0808008A110A1660268A110A160800A2
:102CB00083160317230808000A3400340034003454
:102CC00083160317A80008008316031728080800B6
:102CD00000340034003400340800080000340034AC
:102CE000003401340A340234003400340034003437
:02400E00323F3F
:00000001FF
